{
  "transactions": [
    {
      "hash": "0x25002660ea0c2457361a2cb4d4d27163eb73be423535fea60b5829e6dc417ed4",
      "transactionType": "CALL",
      "contractName": null,
      "contractAddress": "0xd0ace37eb059437254a9bf45c16b346a7565aa08",
      "function": "setCurator(address)",
      "arguments": [
        "0x19aC47293DDeA675E73FeebeAC52eB6f14ba756f"
      ],
      "transaction": {
        "from": "0x19ac47293ddea675e73feebeac52eb6f14ba756f",
        "to": "0xd0ace37eb059437254a9bf45c16b346a7565aa08",
        "gas": "0x9adb",
        "value": "0x0",
        "input": "0xe90956cf00000000000000000000000019ac47293ddea675e73feebeac52eb6f14ba756f",
        "nonce": "0x7",
        "chainId": "0x2105"
      },
      "additionalContracts": [],
      "isFixedGasLimit": false
    },
    {
      "hash": "0xb1aedf0b17727315f17f52cccbda59250defa4056e0b747ddc8801596ee18670",
      "transactionType": "CALL",
      "contractName": null,
      "contractAddress": "0x5d7d38df44c2f3667c87537321b03b11a1578a00",
      "function": "createMetaMorphoAdapter(address,address)",
      "arguments": [
        "0xD0AcE37EB059437254a9bf45C16B346a7565Aa08",
        "0xc1256Ae5FF1cf2719D4937adb3bbCCab2E00A2Ca"
      ],
      "transaction": {
        "from": "0x19ac47293ddea675e73feebeac52eb6f14ba756f",
        "to": "0x5d7d38df44c2f3667c87537321b03b11a1578a00",
        "gas": "0x1517eb",
        "value": "0x0",
        "input": "0xfc46227a000000000000000000000000d0ace37eb059437254a9bf45c16b346a7565aa08000000000000000000000000c1256ae5ff1cf2719d4937adb3bbccab2e00a2ca",
        "nonce": "0x8",
        "chainId": "0x2105"
      },
      "additionalContracts": [
        {
          "transactionType": "CREATE2",
          "address": "0xca701db8af0524a69b63506301492a4c0979a9f9",
          "initCode": "0x60c08060405234610130576040816111e6803803809161001f828561018e565b8339810103126101305761003e6020610037836101c5565b92016101c5565b608082905260a08190526040516338d52e0f60e01b81526001600160a01b0383169290602081600481875afa90811561013c575f91610147575b50926100886020926004956101d9565b6040516338d52e0f60e01b815293849182905afa801561013c575f906100fd575b6100b392506101d9565b604051610f1b90816102cb823960805181818161043501528181610893015281816109bc0152610caf015260a05181818160fc015281816103ab0152818161047201526109f90152f35b506020823d602011610134575b816101176020938361018e565b810103126101305761012b6100b3926101c5565b6100a9565b5f80fd5b3d915061010a565b6040513d5f823e3d90fd5b9390506020843d602011610186575b816101636020938361018e565b810103126101305761008860209261017c6004966101c5565b9295509250610078565b3d9150610156565b601f909101601f19168101906001600160401b038211908210176101b157604052565b634e487b7160e01b5f52604160045260245ffd5b51906001600160a01b038216820361013057565b90813b156102bb575f91829182604051602081019263095ea7b360e01b845260018060a01b03166024820152811960448201526044815261021b60648261018e565b51925af13d156102b3573d906001600160401b0382116101b1576040519161024d601f8201601f19166020018461018e565b82523d5f602084013e5b156102a4578051908115918215610281575b50501561027257565b631f55ddd960e21b5f5260045ffd5b819250906020918101031261013057602001518015158103610130575f80610269565b637cceae2560e01b5f5260045ffd5b606090610257565b633c11a9c560e21b5f5260045ffdfe6080806040526004361015610012575f80fd5b5f3560e01c9081630fe3653614610c675750806323a6aad7146109915780632b30997b14610800578063388af5b5146107b05780639d1bdc001461040a578063a72158b7146103cf578063b6042b34146103615763bc25cf7714610074575f80fd5b346102765760207ffffffffffffffffffffffffffffffffffffffffffffffffffffffffffffffffc3601126102765760043573ffffffffffffffffffffffffffffffffffffffff8116908181036102765773ffffffffffffffffffffffffffffffffffffffff5f5416908133036103395773ffffffffffffffffffffffffffffffffffffffff7f000000000000000000000000000000000000000000000000000000000000000016831461031157604051917f70a08231000000000000000000000000000000000000000000000000000000008352306004840152602083602481875afa928315610306575f936102d2575b50813b156102aa575f9182918260405160208101927fa9059cbb0000000000000000000000000000000000000000000000000000000084526024820152866044820152604481526101b8606482610cd3565b51925af13d156102a2573d906101cd82610d41565b916101db6040519384610cd3565b82523d5f602084013e5b1561027a578051908115918215610253575b50501561022b5760207f5e99aaf6d3588fb2497fde044168e8c046704a3223559cfe107f8f94b42cefdd91604051908152a2005b7f2f0470fc000000000000000000000000000000000000000000000000000000005f5260045ffd5b819250906020918101031261027657602001518015158103610276575f806101f7565b5f80fd5b7face2a47e000000000000000000000000000000000000000000000000000000005f5260045ffd5b6060906101e5565b7ff046a714000000000000000000000000000000000000000000000000000000005f5260045ffd5b9092506020813d6020116102fe575b816102ee60209383610cd3565b810103126102765751915f610166565b3d91506102e1565b6040513d5f823e3d90fd5b7f4a202356000000000000000000000000000000000000000000000000000000005f5260045ffd5b7fea8e4eb5000000000000000000000000000000000000000000000000000000005f5260045ffd5b34610276575f7ffffffffffffffffffffffffffffffffffffffffffffffffffffffffffffffffc36011261027657602060405173ffffffffffffffffffffffffffffffffffffffff7f0000000000000000000000000000000000000000000000000000000000000000168152f35b34610276575f7ffffffffffffffffffffffffffffffffffffffffffffffffffffffffffffffffc360112610276576020600154604051908152f35b346102765761041836610d7b565b90516107885773ffffffffffffffffffffffffffffffffffffffff7f00000000000000000000000000000000000000000000000000000000000000001633036103395773ffffffffffffffffffffffffffffffffffffffff7f000000000000000000000000000000000000000000000000000000000000000016906040517f6e553f650000000000000000000000000000000000000000000000000000000081525f60048201523060248201526020816044815f875af1801561030657610759575b5060015491604051917f70a08231000000000000000000000000000000000000000000000000000000008352306004840152602083602481855afa928315610306575f93610725575b50604051927f4cdad5060000000000000000000000000000000000000000000000000000000084526004840152602083602481855afa928315610306575f936106f1575b50604051907f6e553f6500000000000000000000000000000000000000000000000000000000825260048201523060248201526020816044815f865af18015610306576106c2575b506040517f70a08231000000000000000000000000000000000000000000000000000000008152306004820152602081602481855afa8015610306575f9061068f575b602091506024604051809481937f4cdad50600000000000000000000000000000000000000000000000000000000835260048301525afa908115610306575f9161065d575b50600155610659610646610e49565b6040519383859482039111029083610e05565b0390f35b90506020813d602011610687575b8161067860209383610cd3565b81010312610276575183610637565b3d915061066b565b506020813d6020116106ba575b816106a960209383610cd3565b8101031261027657602090516105f2565b3d915061069c565b6020813d6020116106e9575b816106db60209383610cd3565b8101031261027657516105af565b3d91506106ce565b9092506020813d60201161071d575b8161070d60209383610cd3565b8101031261027657519184610567565b3d9150610700565b9092506020813d602011610751575b8161074160209383610cd3565b8101031261027657519184610523565b3d9150610734565b6020813d602011610780575b8161077260209383610cd3565b8101031261027657516104da565b3d9150610765565b7f5cb045db000000000000000000000000000000000000000000000000000000005f5260045ffd5b34610276575f7ffffffffffffffffffffffffffffffffffffffffffffffffffffffffffffffffc36011261027657602073ffffffffffffffffffffffffffffffffffffffff5f5416604051908152f35b346102765760207ffffffffffffffffffffffffffffffffffffffffffffffffffffffffffffffffc3601126102765760043573ffffffffffffffffffffffffffffffffffffffff8116809103610276576040517f8da5cb5b00000000000000000000000000000000000000000000000000000000815260208160048173ffffffffffffffffffffffffffffffffffffffff7f0000000000000000000000000000000000000000000000000000000000000000165afa8015610306575f9061092e575b73ffffffffffffffffffffffffffffffffffffffff915016330361033957807fffffffffffffffffffffffff00000000000000000000000000000000000000005f5416175f557f2e7908865670e21b9779422cadf5f1cba271a62bb95c71eaaf615c0a1c48ebee5f80a2005b506020813d602011610989575b8161094860209383610cd3565b81010312610276575173ffffffffffffffffffffffffffffffffffffffff811681036102765773ffffffffffffffffffffffffffffffffffffffff906108c2565b3d915061093b565b346102765761099f36610d7b565b90516107885773ffffffffffffffffffffffffffffffffffffffff7f00000000000000000000000000000000000000000000000000000000000000001633036103395773ffffffffffffffffffffffffffffffffffffffff7f000000000000000000000000000000000000000000000000000000000000000016906040517f6e553f650000000000000000000000000000000000000000000000000000000081525f60048201523060248201526020816044815f875af1801561030657610c38575b5060015491604051917f70a08231000000000000000000000000000000000000000000000000000000008352306004840152602083602481855afa928315610306575f93610c04575b50604051927f4cdad5060000000000000000000000000000000000000000000000000000000084526004840152602083602481855afa928315610306575f93610bd0575b50604051907fb460af9400000000000000000000000000000000000000000000000000000000825260048201523060248201523060448201526020816064815f865af18015610306576106c257506040517f70a08231000000000000000000000000000000000000000000000000000000008152306004820152602081602481855afa8015610306575f9061068f57602091506024604051809481937f4cdad50600000000000000000000000000000000000000000000000000000000835260048301525afa908115610306575f9161065d5750600155610659610646610e49565b9092506020813d602011610bfc575b81610bec60209383610cd3565b8101031261027657519184610aee565b3d9150610bdf565b9092506020813d602011610c30575b81610c2060209383610cd3565b8101031261027657519184610aaa565b3d9150610c13565b6020813d602011610c5f575b81610c5160209383610cd3565b810103126102765751610a61565b3d9150610c44565b34610276575f7ffffffffffffffffffffffffffffffffffffffffffffffffffffffffffffffffc3601126102765760209073ffffffffffffffffffffffffffffffffffffffff7f0000000000000000000000000000000000000000000000000000000000000000168152f35b90601f7fffffffffffffffffffffffffffffffffffffffffffffffffffffffffffffffe0910116810190811067ffffffffffffffff821117610d1457604052565b7f4e487b71000000000000000000000000000000000000000000000000000000005f52604160045260245ffd5b67ffffffffffffffff8111610d1457601f017fffffffffffffffffffffffffffffffffffffffffffffffffffffffffffffffe01660200190565b60407ffffffffffffffffffffffffffffffffffffffffffffffffffffffffffffffffc8201126102765760043567ffffffffffffffff8111610276578160238201121561027657806004013590610dd182610d41565b92610ddf6040519485610cd3565b8284526024838301011161027657815f9260246020930183860137830101529060243590565b92919060408401906040855280518092526020606086019101915f5b818110610e3357505060209150930152565b8351835260209384019390920191600101610e21565b6040805190610e588183610cd3565b6001825260208201907fffffffffffffffffffffffffffffffffffffffffffffffffffffffffffffffe0810136833780516020810191808352600760608301527f61646170746572000000000000000000000000000000000000000000000000006080830152309082015260808152610ed260a082610cd3565b51902090825115610ee1575290565b7f4e487b71000000000000000000000000000000000000000000000000000000005f52603260045260245ffdfea164736f6c634300081c000a000000000000000000000000d0ace37eb059437254a9bf45c16b346a7565aa08000000000000000000000000c1256ae5ff1cf2719d4937adb3bbccab2e00a2ca"
        }
      ],
      "isFixedGasLimit": false
    },
    {
      "hash": "0xe1c16054b566dd1a2f998f3827f769b73e9fc070a88124e5dae35e0485722d3e",
      "transactionType": "CALL",
      "contractName": null,
      "contractAddress": "0xd0ace37eb059437254a9bf45c16b346a7565aa08",
      "function": "submit(bytes)",
      "arguments": [
        "0xb192a84a00000000000000000000000019ac47293ddea675e73feebeac52eb6f14ba756f0000000000000000000000000000000000000000000000000000000000000001"
      ],
      "transaction": {
        "from": "0x19ac47293ddea675e73feebeac52eb6f14ba756f",
        "to": "0xd0ace37eb059437254a9bf45c16b346a7565aa08",
        "gas": "0x12265",
        "value": "0x0",
        "input": "0xef7fa71b00000000000000000000000000000000000000000000000000000000000000200000000000000000000000000000000000000000000000000000000000000044b192a84a00000000000000000000000019ac47293ddea675e73feebeac52eb6f14ba756f000000000000000000000000000000000000000000000000000000000000000100000000000000000000000000000000000000000000000000000000",
        "nonce": "0x9",
        "chainId": "0x2105"
      },
      "additionalContracts": [],
      "isFixedGasLimit": false
    },
    {
      "hash": "0xc33a4752c3ba1f756d72e8880e23a7ed48b9383f24aeb2cfa1c64f0fe483ed53",
      "transactionType": "CALL",
      "contractName": null,
      "contractAddress": "0xd0ace37eb059437254a9bf45c16b346a7565aa08",
      "function": "setIsAllocator(address,bool)",
      "arguments": [
        "0x19aC47293DDeA675E73FeebeAC52eB6f14ba756f",
        "true"
      ],
      "transaction": {
        "from": "0x19ac47293ddea675e73feebeac52eb6f14ba756f",
        "to": "0xd0ace37eb059437254a9bf45c16b346a7565aa08",
        "gas": "0x10dee",
        "value": "0x0",
        "input": "0xb192a84a00000000000000000000000019ac47293ddea675e73feebeac52eb6f14ba756f0000000000000000000000000000000000000000000000000000000000000001",
        "nonce": "0xa",
        "chainId": "0x2105"
      },
      "additionalContracts": [],
      "isFixedGasLimit": false
    },
    {
      "hash": "0x802baf777e91f4df23c02117524c41480d266ee3d20db088c165770fd0d31cc9",
      "transactionType": "CALL",
      "contractName": null,
      "contractAddress": "0xd0ace37eb059437254a9bf45c16b346a7565aa08",
      "function": "submit(bytes)",
      "arguments": [
        "0xf6f98fd5000000000000000000000000000000000000000000000000000000000000004000000000000000000000000000000000000000000000000000000002540be40000000000000000000000000000000000000000000000000000000000000000800000000000000000000000000000000000000000000000000000000000000040000000000000000000000000ca701db8af0524a69b63506301492a4c0979a9f900000000000000000000000000000000000000000000000000000000000000076164617074657200000000000000000000000000000000000000000000000000"
      ],
      "transaction": {
        "from": "0x19ac47293ddea675e73feebeac52eb6f14ba756f",
        "to": "0xd0ace37eb059437254a9bf45c16b346a7565aa08",
        "gas": "0x12e8e",
        "value": "0x0",
        "input": "0xef7fa71b000000000000000000000000000000000000000000000000000000000000002000000000000000000000000000000000000000000000000000000000000000e4f6f98fd5000000000000000000000000000000000000000000000000000000000000004000000000000000000000000000000000000000000000000000000002540be40000000000000000000000000000000000000000000000000000000000000000800000000000000000000000000000000000000000000000000000000000000040000000000000000000000000ca701db8af0524a69b63506301492a4c0979a9f90000000000000000000000000000000000000000000000000000000000000007616461707465720000000000000000000000000000000000000000000000000000000000000000000000000000000000000000000000000000000000",
        "nonce": "0xb",
        "chainId": "0x2105"
      },
      "additionalContracts": [],
      "isFixedGasLimit": false
    },
    {
      "hash": "0x2abbd4331cd4b548d9a1fcbb6d254d2956c5a82a5529f40a661abd2636dc9985",
      "transactionType": "CALL",
      "contractName": null,
      "contractAddress": "0xd0ace37eb059437254a9bf45c16b346a7565aa08",
      "function": "increaseAbsoluteCap(bytes,uint256)",
      "arguments": [
        "0x0000000000000000000000000000000000000000000000000000000000000040000000000000000000000000ca701db8af0524a69b63506301492a4c0979a9f900000000000000000000000000000000000000000000000000000000000000076164617074657200000000000000000000000000000000000000000000000000",
        "10000000000"
      ],
      "transaction": {
        "from": "0x19ac47293ddea675e73feebeac52eb6f14ba756f",
        "to": "0xd0ace37eb059437254a9bf45c16b346a7565aa08",
        "gas": "0x1232e",
        "value": "0x0",
        "input": "0xf6f98fd5000000000000000000000000000000000000000000000000000000000000004000000000000000000000000000000000000000000000000000000002540be40000000000000000000000000000000000000000000000000000000000000000800000000000000000000000000000000000000000000000000000000000000040000000000000000000000000ca701db8af0524a69b63506301492a4c0979a9f900000000000000000000000000000000000000000000000000000000000000076164617074657200000000000000000000000000000000000000000000000000",
        "nonce": "0xc",
        "chainId": "0x2105"
      },
      "additionalContracts": [],
      "isFixedGasLimit": false
    },
    {
      "hash": "0x4843da4bde7334fc55f15e092b0ac01f24af31f38e343d55250af4d57c328731",
      "transactionType": "CALL",
      "contractName": null,
      "contractAddress": "0xd0ace37eb059437254a9bf45c16b346a7565aa08",
      "function": "submit(bytes)",
      "arguments": [
        "0x2438525b00000000000000000000000000000000000000000000000000000000000000400000000000000000000000000000000000000000000000000de0b6b3a764000000000000000000000000000000000000000000000000000000000000000000800000000000000000000000000000000000000000000000000000000000000040000000000000000000000000ca701db8af0524a69b63506301492a4c0979a9f900000000000000000000000000000000000000000000000000000000000000076164617074657200000000000000000000000000000000000000000000000000"
      ],
      "transaction": {
        "from": "0x19ac47293ddea675e73feebeac52eb6f14ba756f",
        "to": "0xd0ace37eb059437254a9bf45c16b346a7565aa08",
        "gas": "0x12eaf",
        "value": "0x0",
        "input": "0xef7fa71b000000000000000000000000000000000000000000000000000000000000002000000000000000000000000000000000000000000000000000000000000000e42438525b00000000000000000000000000000000000000000000000000000000000000400000000000000000000000000000000000000000000000000de0b6b3a764000000000000000000000000000000000000000000000000000000000000000000800000000000000000000000000000000000000000000000000000000000000040000000000000000000000000ca701db8af0524a69b63506301492a4c0979a9f90000000000000000000000000000000000000000000000000000000000000007616461707465720000000000000000000000000000000000000000000000000000000000000000000000000000000000000000000000000000000000",
        "nonce": "0xd",
        "chainId": "0x2105"
      },
      "additionalContracts": [],
      "isFixedGasLimit": false
    },
    {
      "hash": "0xbc6d4431f2a497cba85549d947004269821f2d0376edbf7ac99ff752ba398204",
      "transactionType": "CALL",
      "contractName": null,
      "contractAddress": "0xd0ace37eb059437254a9bf45c16b346a7565aa08",
      "function": "increaseRelativeCap(bytes,uint256)",
      "arguments": [
        "0x0000000000000000000000000000000000000000000000000000000000000040000000000000000000000000ca701db8af0524a69b63506301492a4c0979a9f900000000000000000000000000000000000000000000000000000000000000076164617074657200000000000000000000000000000000000000000000000000",
        "1000000000000000000"
      ],
      "transaction": {
        "from": "0x19ac47293ddea675e73feebeac52eb6f14ba756f",
        "to": "0xd0ace37eb059437254a9bf45c16b346a7565aa08",
        "gas": "0x10b59",
        "value": "0x0",
        "input": "0x2438525b00000000000000000000000000000000000000000000000000000000000000400000000000000000000000000000000000000000000000000de0b6b3a764000000000000000000000000000000000000000000000000000000000000000000800000000000000000000000000000000000000000000000000000000000000040000000000000000000000000ca701db8af0524a69b63506301492a4c0979a9f900000000000000000000000000000000000000000000000000000000000000076164617074657200000000000000000000000000000000000000000000000000",
        "nonce": "0xe",
        "chainId": "0x2105"
      },
      "additionalContracts": [],
      "isFixedGasLimit": false
    },
    {
      "hash": "0x84246a5460d2b377a60a595c6c9705f0c79899e4350a271eb082c3652c438d81",
      "transactionType": "CALL",
      "contractName": null,
      "contractAddress": "0xd0ace37eb059437254a9bf45c16b346a7565aa08",
      "function": "submit(bytes)",
      "arguments": [
        "0xb332ebf2000000000000000000000000ca701db8af0524a69b63506301492a4c0979a9f90000000000000000000000000000000000000000000000000000000000000001"
      ],
      "transaction": {
        "from": "0x19ac47293ddea675e73feebeac52eb6f14ba756f",
        "to": "0xd0ace37eb059437254a9bf45c16b346a7565aa08",
        "gas": "0x12265",
        "value": "0x0",
        "input": "0xef7fa71b00000000000000000000000000000000000000000000000000000000000000200000000000000000000000000000000000000000000000000000000000000044b332ebf2000000000000000000000000ca701db8af0524a69b63506301492a4c0979a9f9000000000000000000000000000000000000000000000000000000000000000100000000000000000000000000000000000000000000000000000000",
        "nonce": "0xf",
        "chainId": "0x2105"
      },
      "additionalContracts": [],
      "isFixedGasLimit": false
    },
    {
      "hash": "0x9c8426902efce4a2f5f77faf453772004237a61e162139a01ea205e5f403d2d2",
      "transactionType": "CALL",
      "contractName": null,
      "contractAddress": "0xd0ace37eb059437254a9bf45c16b346a7565aa08",
      "function": "setIsAdapter(address,bool)",
      "arguments": [
        "0xca701dB8AF0524A69B63506301492A4c0979a9f9",
        "true"
      ],
      "transaction": {
        "from": "0x19ac47293ddea675e73feebeac52eb6f14ba756f",
        "to": "0xd0ace37eb059437254a9bf45c16b346a7565aa08",
        "gas": "0x10a89",
        "value": "0x0",
        "input": "0xb332ebf2000000000000000000000000ca701db8af0524a69b63506301492a4c0979a9f90000000000000000000000000000000000000000000000000000000000000001",
        "nonce": "0x10",
        "chainId": "0x2105"
      },
      "additionalContracts": [],
      "isFixedGasLimit": false
    },
    {
      "hash": "0x5c728a17171ab0581a58d30b44c57f32f09d1c47481a645e0d2e276aeea26102",
      "transactionType": "CALL",
      "contractName": null,
      "contractAddress": "0xd0ace37eb059437254a9bf45c16b346a7565aa08",
      "function": "submit(bytes)",
      "arguments": [
        "0xf8bfe0ff000000000000000000000000ca701db8af0524a69b63506301492a4c0979a9f9"
      ],
      "transaction": {
        "from": "0x19ac47293ddea675e73feebeac52eb6f14ba756f",
        "to": "0xd0ace37eb059437254a9bf45c16b346a7565aa08",
        "gas": "0x13108",
        "value": "0x0",
        "input": "0xef7fa71b00000000000000000000000000000000000000000000000000000000000000200000000000000000000000000000000000000000000000000000000000000024f8bfe0ff000000000000000000000000ca701db8af0524a69b63506301492a4c0979a9f900000000000000000000000000000000000000000000000000000000",
        "nonce": "0x11",
        "chainId": "0x2105"
      },
      "additionalContracts": [],
      "isFixedGasLimit": false
    },
    {
      "hash": "0xd27a5927f35a8c2e4b0fcda6839dc02127d29cebc8872c72b4fcd8dda041032b",
      "transactionType": "CALL",
      "contractName": null,
      "contractAddress": "0xd0ace37eb059437254a9bf45c16b346a7565aa08",
      "function": "setLiquidityAdapter(address)",
      "arguments": [
        "0xca701dB8AF0524A69B63506301492A4c0979a9f9"
      ],
      "transaction": {
        "from": "0x19ac47293ddea675e73feebeac52eb6f14ba756f",
        "to": "0xd0ace37eb059437254a9bf45c16b346a7565aa08",
        "gas": "0x12582",
        "value": "0x0",
        "input": "0xf8bfe0ff000000000000000000000000ca701db8af0524a69b63506301492a4c0979a9f9",
        "nonce": "0x12",
        "chainId": "0x2105"
      },
      "additionalContracts": [],
      "isFixedGasLimit": false
    }
  ],
  "receipts": [
    {
      "status": "0x1",
      "cumulativeGasUsed": "0x379ff3f",
      "logs": [
        {
          "address": "0xd0ace37eb059437254a9bf45c16b346a7565aa08",
          "topics": [
            "0xbd0a63c12948fbc9194a5839019f99c9d71db924e5c70018265bc778b8f1a506",
            "0x00000000000000000000000019ac47293ddea675e73feebeac52eb6f14ba756f"
          ],
          "data": "0x",
          "blockHash": "0x3b288d4881dc559199442e839a29479996051e0709bd5166b4100ded4366b72d",
          "blockNumber": "0x1d935cb",
          "blockTimestamp": "0x683cc879",
          "transactionHash": "0x25002660ea0c2457361a2cb4d4d27163eb73be423535fea60b5829e6dc417ed4",
          "transactionIndex": "0xdc",
          "logIndex": "0x341",
          "removed": false
        }
      ],
      "logsBloom": "0x00000000000000000000000000000000000000000020000000000000000000000000000000000000000000000000000000000000000020000000000000000000000000000000000000000000000000000000000000000000000000000000000000000000000000002000000000000000000000000000000000000000000000020000000000000000000000000000000000000000000000000000000000000000000000000000000000000000000000020000000000000000000000000000000000000000000000000000000000000000000000000000000000000000000000000000000000080000008000000000000000000000000400400000000000000000",
      "type": "0x2",
      "transactionHash": "0x25002660ea0c2457361a2cb4d4d27163eb73be423535fea60b5829e6dc417ed4",
      "transactionIndex": "0xdc",
      "blockHash": "0x3b288d4881dc559199442e839a29479996051e0709bd5166b4100ded4366b72d",
      "blockNumber": "0x1d935cb",
      "gasUsed": "0x701e",
      "effectiveGasPrice": "0xdc618",
      "from": "0x19ac47293ddea675e73feebeac52eb6f14ba756f",
      "to": "0xd0ace37eb059437254a9bf45c16b346a7565aa08",
      "contractAddress": null,
      "l1BaseFeeScalar": "0x8dd",
      "l1BlobBaseFee": "0x1",
      "l1BlobBaseFeeScalar": "0x101c12",
      "l1Fee": "0xc4e1db31",
      "l1GasPrice": "0x363b4752",
      "l1GasUsed": "0x640"
    },
    {
      "status": "0x1",
      "cumulativeGasUsed": "0x2b7246c",
      "logs": [
        {
          "address": "0x833589fcd6edb6e08f4c7c32d4f71b54bda02913",
          "topics": [
            "0x8c5be1e5ebec7d5bd14f71427d1e84f3dd0314c0f7b2291e5b200ac8c7c3b925",
            "0x000000000000000000000000ca701db8af0524a69b63506301492a4c0979a9f9",
            "0x000000000000000000000000d0ace37eb059437254a9bf45c16b346a7565aa08"
          ],
          "data": "0xffffffffffffffffffffffffffffffffffffffffffffffffffffffffffffffff",
          "blockHash": "0x76b64fae2eed600f30bd8fd36b59d4891ef4a547417087e95b7a8db709ac247e",
          "blockNumber": "0x1d935cc",
          "blockTimestamp": "0x683cc87b",
          "transactionHash": "0xb1aedf0b17727315f17f52cccbda59250defa4056e0b747ddc8801596ee18670",
          "transactionIndex": "0xb9",
          "logIndex": "0x244",
          "removed": false
        },
        {
          "address": "0x833589fcd6edb6e08f4c7c32d4f71b54bda02913",
          "topics": [
            "0x8c5be1e5ebec7d5bd14f71427d1e84f3dd0314c0f7b2291e5b200ac8c7c3b925",
            "0x000000000000000000000000ca701db8af0524a69b63506301492a4c0979a9f9",
            "0x000000000000000000000000c1256ae5ff1cf2719d4937adb3bbccab2e00a2ca"
          ],
          "data": "0xffffffffffffffffffffffffffffffffffffffffffffffffffffffffffffffff",
          "blockHash": "0x76b64fae2eed600f30bd8fd36b59d4891ef4a547417087e95b7a8db709ac247e",
          "blockNumber": "0x1d935cc",
          "blockTimestamp": "0x683cc87b",
          "transactionHash": "0xb1aedf0b17727315f17f52cccbda59250defa4056e0b747ddc8801596ee18670",
          "transactionIndex": "0xb9",
          "logIndex": "0x245",
          "removed": false
        },
        {
          "address": "0x5d7d38df44c2f3667c87537321b03b11a1578a00",
          "topics": [
            "0x134c8dfc1f325c675b3d812e41fd1a2237ad93965c303f57b15a8862d7f604f2",
            "0x000000000000000000000000d0ace37eb059437254a9bf45c16b346a7565aa08",
            "0x000000000000000000000000c1256ae5ff1cf2719d4937adb3bbccab2e00a2ca",
            "0x000000000000000000000000ca701db8af0524a69b63506301492a4c0979a9f9"
          ],
          "data": "0x",
          "blockHash": "0x76b64fae2eed600f30bd8fd36b59d4891ef4a547417087e95b7a8db709ac247e",
          "blockNumber": "0x1d935cc",
          "blockTimestamp": "0x683cc87b",
          "transactionHash": "0xb1aedf0b17727315f17f52cccbda59250defa4056e0b747ddc8801596ee18670",
          "transactionIndex": "0xb9",
          "logIndex": "0x246",
          "removed": false
        }
      ],
      "logsBloom": "0x00000000000000000000000000000000000000000060000000000000000000000000000100000000000000000000100000000000100000000000000000600000000000000020000000000000000000000000000000080000000000000000000000800000000000000000000000000000000000000000000000000000000000000000000000000000000000000010000000000000000000008000008020000000020020000000000000000000000000000000000000000000000000000010400000000000000000000000000000001010000000000000000000000000000000000010000000000000000000000000000000000000000000000000000000000000",
      "type": "0x2",
      "transactionHash": "0xb1aedf0b17727315f17f52cccbda59250defa4056e0b747ddc8801596ee18670",
      "transactionIndex": "0xb9",
      "blockHash": "0x76b64fae2eed600f30bd8fd36b59d4891ef4a547417087e95b7a8db709ac247e",
      "blockNumber": "0x1d935cc",
      "gasUsed": "0xe6c41",
      "effectiveGasPrice": "0xdc4b3",
      "from": "0x19ac47293ddea675e73feebeac52eb6f14ba756f",
      "to": "0x5d7d38df44c2f3667c87537321b03b11a1578a00",
      "contractAddress": null,
      "l1BaseFeeScalar": "0x8dd",
      "l1BlobBaseFee": "0x1",
      "l1BlobBaseFeeScalar": "0x101c12",
      "l1Fee": "0xc4e1db31",
      "l1GasPrice": "0x363b4752",
      "l1GasUsed": "0x640"
    },
    {
      "status": "0x1",
      "cumulativeGasUsed": "0x25949a2",
      "logs": [
        {
          "address": "0xd0ace37eb059437254a9bf45c16b346a7565aa08",
          "topics": [
            "0x8b18afeb361b83b025999ed5b42f1d90c68aaa5a0fd49c015f04c3b8b81e80eb",
            "0xb192a84a00000000000000000000000000000000000000000000000000000000"
          ],
          "data": "0x000000000000000000000000000000000000000000000000000000000000004000000000000000000000000000000000000000000000000000000000683cc87f0000000000000000000000000000000000000000000000000000000000000044b192a84a00000000000000000000000019ac47293ddea675e73feebeac52eb6f14ba756f000000000000000000000000000000000000000000000000000000000000000100000000000000000000000000000000000000000000000000000000",
          "blockHash": "0xaa2167b84ecfc487723621293a61d0a4448aface53a2f572409521d0bb0e063c",
          "blockNumber": "0x1d935ce",
          "blockTimestamp": "0x683cc87f",
          "transactionHash": "0xe1c16054b566dd1a2f998f3827f769b73e9fc070a88124e5dae35e0485722d3e",
          "transactionIndex": "0x8f",
          "logIndex": "0x1ad",
          "removed": false
        }
      ],
      "logsBloom": "0x00000000000000000000000000000000000000000000000000000000000000000000000000000000000000000000000000000000000020000000000000000000000000000000000000000000000000000000000000000000000000000081000000100000000000002000000000000000000000000000000000000000080000000000000000000000000000000000000000000000000000000000000000000000000000000000000000000000000000000000000000000000000000000000000000000000000000000000001000000000000000000000000000000000000000000000000000000000008000000000000000000000000000002000000000000000",
      "type": "0x2",
      "transactionHash": "0xe1c16054b566dd1a2f998f3827f769b73e9fc070a88124e5dae35e0485722d3e",
      "transactionIndex": "0x8f",
      "blockHash": "0xaa2167b84ecfc487723621293a61d0a4448aface53a2f572409521d0bb0e063c",
      "blockNumber": "0x1d935ce",
      "gasUsed": "0xd23f",
      "effectiveGasPrice": "0xdafce",
      "from": "0x19ac47293ddea675e73feebeac52eb6f14ba756f",
      "to": "0xd0ace37eb059437254a9bf45c16b346a7565aa08",
      "contractAddress": null,
      "l1BaseFeeScalar": "0x8dd",
      "l1BlobBaseFee": "0x1",
      "l1BlobBaseFeeScalar": "0x101c12",
      "l1Fee": "0xd14b5ae9",
      "l1GasPrice": "0x37184fd1",
      "l1GasUsed": "0x68a"
    },
    {
      "status": "0x1",
      "cumulativeGasUsed": "0x4591983",
      "logs": [
        {
          "address": "0xd0ace37eb059437254a9bf45c16b346a7565aa08",
          "topics": [
            "0x74dc60cbc81a9472d04ad1d20e151d369c41104d655ed3f2f3091166a502cd8d",
            "0x00000000000000000000000019ac47293ddea675e73feebeac52eb6f14ba756f"
          ],
          "data": "0x0000000000000000000000000000000000000000000000000000000000000001",
          "blockHash": "0x30f1279a95bcb1e1e73f10790070dcd9c945a57c0c6542bbf74ac13ed2aa9a65",
          "blockNumber": "0x1d935d0",
          "blockTimestamp": "0x683cc883",
          "transactionHash": "0xc33a4752c3ba1f756d72e8880e23a7ed48b9383f24aeb2cfa1c64f0fe483ed53",
          "transactionIndex": "0x12a",
          "logIndex": "0x36c",
          "removed": false
        }
      ],
      "logsBloom": "0x00000000000000000000000000000000000000000020000000000000000000000000000000000000000000000000000000000000000020000000000000000000000000000000000000000000000000000000000000000000000000000000000000000200000000002000000000000000000000000000800000000000000000000000000000000000000000000000000000000000000000000000000000000000000000000000000000000000000000000000000000000000000000000000000000000000000000000000000000000000000000000000000000000000000000000000000000080000008000000000000000000000000c00000000000000000000",
      "type": "0x2",
      "transactionHash": "0xc33a4752c3ba1f756d72e8880e23a7ed48b9383f24aeb2cfa1c64f0fe483ed53",
      "transactionIndex": "0x12a",
      "blockHash": "0x30f1279a95bcb1e1e73f10790070dcd9c945a57c0c6542bbf74ac13ed2aa9a65",
      "blockNumber": "0x1d935d0",
      "gasUsed": "0xb892",
      "effectiveGasPrice": "0xdcaf5",
      "from": "0x19ac47293ddea675e73feebeac52eb6f14ba756f",
      "to": "0xd0ace37eb059437254a9bf45c16b346a7565aa08",
      "contractAddress": null,
      "l1BaseFeeScalar": "0x8dd",
      "l1BlobBaseFee": "0x1",
      "l1BlobBaseFeeScalar": "0x101c12",
      "l1Fee": "0xc8044b8c",
      "l1GasPrice": "0x37184fd1",
      "l1GasUsed": "0x640"
    },
    {
      "status": "0x1",
      "cumulativeGasUsed": "0x2e28ee4",
      "logs": [
        {
          "address": "0xd0ace37eb059437254a9bf45c16b346a7565aa08",
          "topics": [
            "0x8b18afeb361b83b025999ed5b42f1d90c68aaa5a0fd49c015f04c3b8b81e80eb",
            "0xf6f98fd500000000000000000000000000000000000000000000000000000000"
          ],
          "data": "0x000000000000000000000000000000000000000000000000000000000000004000000000000000000000000000000000000000000000000000000000683cc88500000000000000000000000000000000000000000000000000000000000000e4f6f98fd5000000000000000000000000000000000000000000000000000000000000004000000000000000000000000000000000000000000000000000000002540be40000000000000000000000000000000000000000000000000000000000000000800000000000000000000000000000000000000000000000000000000000000040000000000000000000000000ca701db8af0524a69b63506301492a4c0979a9f90000000000000000000000000000000000000000000000000000000000000007616461707465720000000000000000000000000000000000000000000000000000000000000000000000000000000000000000000000000000000000",
          "blockHash": "0x0a0609f22a880f1bdc06840dc905c57a8b1a96549ca5604354b4d3b8935741a2",
          "blockNumber": "0x1d935d1",
          "blockTimestamp": "0x683cc885",
          "transactionHash": "0x802baf777e91f4df23c02117524c41480d266ee3d20db088c165770fd0d31cc9",
          "transactionIndex": "0xdd",
          "logIndex": "0x24b",
          "removed": false
        }
      ],
      "logsBloom": "0x00000000000000000000000000000000000000000000000000000000000001000000000000000000000000000000000000000000000020000000000000000000000000000000000000000000000000000000000000000000000000000001000000140000000000002000000000000000000000000000000000000000000000000000000000000000000000000000000000000000000000000000000000000000000000000000000000000000000000000000000000000000000000000000000000000000000001000000001000000000000000000000000000000000000000000000000000000000008000000000000000000000000000000000000000000000",
      "type": "0x2",
      "transactionHash": "0x802baf777e91f4df23c02117524c41480d266ee3d20db088c165770fd0d31cc9",
      "transactionIndex": "0xdd",
      "blockHash": "0x0a0609f22a880f1bdc06840dc905c57a8b1a96549ca5604354b4d3b8935741a2",
      "blockNumber": "0x1d935d1",
      "gasUsed": "0xdb0c",
      "effectiveGasPrice": "0xdd751",
      "from": "0x19ac47293ddea675e73feebeac52eb6f14ba756f",
      "to": "0xd0ace37eb059437254a9bf45c16b346a7565aa08",
      "contractAddress": null,
      "l1BaseFeeScalar": "0x8dd",
      "l1BlobBaseFee": "0x1",
      "l1BlobBaseFeeScalar": "0x101c12",
      "l1Fee": "0x106d5b889",
      "l1GasPrice": "0x37184fd1",
      "l1GasUsed": "0x836"
    },
    {
      "status": "0x1",
      "cumulativeGasUsed": "0x25651b7",
      "logs": [
        {
          "address": "0xd0ace37eb059437254a9bf45c16b346a7565aa08",
          "topics": [
            "0x7368d59ed82f6a538f6deef9baa54623fe3699ce07b19031f762f740c8c34b03",
            "0xa10858dea6b5abea9b74cc9d543f600c56688fedcae049c420c25df3347309c9"
          ],
          "data": "0x000000000000000000000000000000000000000000000000000000000000004000000000000000000000000000000000000000000000000000000002540be40000000000000000000000000000000000000000000000000000000000000000800000000000000000000000000000000000000000000000000000000000000040000000000000000000000000ca701db8af0524a69b63506301492a4c0979a9f900000000000000000000000000000000000000000000000000000000000000076164617074657200000000000000000000000000000000000000000000000000",
          "blockHash": "0x5246144f7dc53582953189ad71695d1fcc51c3924916b02dcb89b98409f5eb3d",
          "blockNumber": "0x1d935d2",
          "blockTimestamp": "0x683cc887",
          "transactionHash": "0x2abbd4331cd4b548d9a1fcbb6d254d2956c5a82a5529f40a661abd2636dc9985",
          "transactionIndex": "0xaa",
          "logIndex": "0x21d",
          "removed": false
        }
      ],
      "logsBloom": "0x00000000000000200000000000000000000000000000000000000000000000000000000000000000000000020000000000000000000020000000000000000000000000000000000000000000000000000000000000000000000000000000000000000000000000002000000000000000000000000000000000000000000000000000000000000000000000000000000000000000000000000000000000000000400000000000000000000000000000000000000000000000000000000000000000000000000000000000000000000000000000010000000000000000000000000000000000000000008000000000000010000000000000000000000400000000",
      "type": "0x2",
      "transactionHash": "0x2abbd4331cd4b548d9a1fcbb6d254d2956c5a82a5529f40a661abd2636dc9985",
      "transactionIndex": "0xaa",
      "blockHash": "0x5246144f7dc53582953189ad71695d1fcc51c3924916b02dcb89b98409f5eb3d",
      "blockNumber": "0x1d935d2",
      "gasUsed": "0xc719",
      "effectiveGasPrice": "0xdcbfb",
      "from": "0x19ac47293ddea675e73feebeac52eb6f14ba756f",
      "to": "0xd0ace37eb059437254a9bf45c16b346a7565aa08",
      "contractAddress": null,
      "l1BaseFeeScalar": "0x8dd",
      "l1BlobBaseFee": "0x1",
      "l1BlobBaseFeeScalar": "0x101c12",
      "l1Fee": "0xe8b7e3df",
      "l1GasPrice": "0x37184fd1",
      "l1GasUsed": "0x745"
    },
    {
      "status": "0x1",
      "cumulativeGasUsed": "0x2720049",
      "logs": [
        {
          "address": "0xd0ace37eb059437254a9bf45c16b346a7565aa08",
          "topics": [
            "0x8b18afeb361b83b025999ed5b42f1d90c68aaa5a0fd49c015f04c3b8b81e80eb",
            "0x2438525b00000000000000000000000000000000000000000000000000000000"
          ],
          "data": "0x000000000000000000000000000000000000000000000000000000000000004000000000000000000000000000000000000000000000000000000000683cc88900000000000000000000000000000000000000000000000000000000000000e42438525b00000000000000000000000000000000000000000000000000000000000000400000000000000000000000000000000000000000000000000de0b6b3a764000000000000000000000000000000000000000000000000000000000000000000800000000000000000000000000000000000000000000000000000000000000040000000000000000000000000ca701db8af0524a69b63506301492a4c0979a9f90000000000000000000000000000000000000000000000000000000000000007616461707465720000000000000000000000000000000000000000000000000000000000000000000000000000000000000000000000000000000000",
          "blockHash": "0x2a33d40a83263177fa52934024b401c156ce4d215d1517f286a00b44d5e70bc2",
          "blockNumber": "0x1d935d3",
          "blockTimestamp": "0x683cc889",
          "transactionHash": "0x4843da4bde7334fc55f15e092b0ac01f24af31f38e343d55250af4d57c328731",
          "transactionIndex": "0xa2",
          "logIndex": "0x1be",
          "removed": false
        }
      ],
      "logsBloom": "0x00000000000000000000000000020000000000000000000000000000000000000000000000000000000000000000000000000000000020000000000000000000000000001000000000000000000000000000000000000000000000000001000000100000000000002000000000000000000000000000002000000000000000000000000000000000000000000000000000000000000000000000000000000000000000000000000000000000000000000000000000000000000000000000000000000000000000000000001000000000000000000000000000000000000000000000000000000000008000000000000000000000000000000000000000000000",
      "type": "0x2",
      "transactionHash": "0x4843da4bde7334fc55f15e092b0ac01f24af31f38e343d55250af4d57c328731",
      "transactionIndex": "0xa2",
      "blockHash": "0x2a33d40a83263177fa52934024b401c156ce4d215d1517f286a00b44d5e70bc2",
      "blockNumber": "0x1d935d3",
      "gasUsed": "0xdb24",
      "effectiveGasPrice": "0xdb6b3",
      "from": "0x19ac47293ddea675e73feebeac52eb6f14ba756f",
      "to": "0xd0ace37eb059437254a9bf45c16b346a7565aa08",
      "contractAddress": null,
      "l1BaseFeeScalar": "0x8dd",
      "l1BlobBaseFee": "0x1",
      "l1BlobBaseFeeScalar": "0x101c12",
      "l1Fee": "0x110dfaa17",
      "l1GasPrice": "0x37184fd1",
      "l1GasUsed": "0x886"
    },
    {
      "status": "0x1",
      "cumulativeGasUsed": "0x32c6d79",
      "logs": [
        {
          "address": "0xd0ace37eb059437254a9bf45c16b346a7565aa08",
          "topics": [
            "0x2a343b9a1ceba40853d01c6adeea53f5c0e4b95b4eb870ed4af309a0ead7e399",
            "0xa10858dea6b5abea9b74cc9d543f600c56688fedcae049c420c25df3347309c9"
          ],
          "data": "0x00000000000000000000000000000000000000000000000000000000000000400000000000000000000000000000000000000000000000000de0b6b3a764000000000000000000000000000000000000000000000000000000000000000000800000000000000000000000000000000000000000000000000000000000000040000000000000000000000000ca701db8af0524a69b63506301492a4c0979a9f900000000000000000000000000000000000000000000000000000000000000076164617074657200000000000000000000000000000000000000000000000000",
          "blockHash": "0x6a151d582b9b4fb79236c2275cfd103127f269d47caf7c737d808367dd8cbd6f",
          "blockNumber": "0x1d935d5",
          "blockTimestamp": "0x683cc88d",
          "transactionHash": "0xbc6d4431f2a497cba85549d947004269821f2d0376edbf7ac99ff752ba398204",
          "transactionIndex": "0xe1",
          "logIndex": "0x24c",
          "removed": false
        }
      ],
      "logsBloom": "0x00000000000000200000000000000000000000000000000000000000000000000000000000000000000000000000000000000000000020000000000000000000000000000000000000000000000000000000000000000000000000000000000000000000000000002000000000000000000000000000000000000000000000000000000000000000000000800004000000000000000000000000000000000000000000000000000000000000000000000000000000000000000000000000000000000000000000000000000000000000000000000000000000000000000000000000000000000000408000000000000010000000000000000000000400000000",
      "type": "0x2",
      "transactionHash": "0xbc6d4431f2a497cba85549d947004269821f2d0376edbf7ac99ff752ba398204",
      "transactionIndex": "0xe1",
      "blockHash": "0x6a151d582b9b4fb79236c2275cfd103127f269d47caf7c737d808367dd8cbd6f",
      "blockNumber": "0x1d935d5",
      "gasUsed": "0xc18f",
      "effectiveGasPrice": "0xdd117",
      "from": "0x19ac47293ddea675e73feebeac52eb6f14ba756f",
      "to": "0xd0ace37eb059437254a9bf45c16b346a7565aa08",
      "contractAddress": null,
      "l1BaseFeeScalar": "0x8dd",
      "l1BlobBaseFee": "0x1",
      "l1BlobBaseFeeScalar": "0x101c12",
      "l1Fee": "0xeb9d543d",
      "l1GasPrice": "0x357952c9",
      "l1GasUsed": "0x795"
    },
    {
      "status": "0x1",
      "cumulativeGasUsed": "0x2326e3a",
      "logs": [
        {
          "address": "0xd0ace37eb059437254a9bf45c16b346a7565aa08",
          "topics": [
            "0x8b18afeb361b83b025999ed5b42f1d90c68aaa5a0fd49c015f04c3b8b81e80eb",
            "0xb332ebf200000000000000000000000000000000000000000000000000000000"
          ],
          "data": "0x000000000000000000000000000000000000000000000000000000000000004000000000000000000000000000000000000000000000000000000000683cc88f0000000000000000000000000000000000000000000000000000000000000044b332ebf2000000000000000000000000ca701db8af0524a69b63506301492a4c0979a9f9000000000000000000000000000000000000000000000000000000000000000100000000000000000000000000000000000000000000000000000000",
          "blockHash": "0x25e1c01a206136035ba92c2232248a6d713cee60e718e39ad710bf192a1e3bd9",
          "blockNumber": "0x1d935d6",
          "blockTimestamp": "0x683cc88f",
          "transactionHash": "0x84246a5460d2b377a60a595c6c9705f0c79899e4350a271eb082c3652c438d81",
          "transactionIndex": "0xa0",
          "logIndex": "0x14f",
          "removed": false
        }
      ],
      "logsBloom": "0x00000000000000000000000000000000010000000000000000000000000000000000000000000000000000000000000000000000000020000000000000000000000000000008000000000000000000000000000000000000001000000001000000100000000000002000000000000000000000000000000000000000000000000000000000000000000000000000000000000000000000000000000000000000000000000000000000000000000000000000000000000000000000000000000000000000000000000000001000000000000000000000000000000000000000000000000000000000008000000000000000000000000000000000000000000000",
      "type": "0x2",
      "transactionHash": "0x84246a5460d2b377a60a595c6c9705f0c79899e4350a271eb082c3652c438d81",
      "transactionIndex": "0xa0",
      "blockHash": "0x25e1c01a206136035ba92c2232248a6d713cee60e718e39ad710bf192a1e3bd9",
      "blockNumber": "0x1d935d6",
      "gasUsed": "0xd23f",
      "effectiveGasPrice": "0xdcf9d",
      "from": "0x19ac47293ddea675e73feebeac52eb6f14ba756f",
      "to": "0xd0ace37eb059437254a9bf45c16b346a7565aa08",
      "contractAddress": null,
      "l1BaseFeeScalar": "0x8dd",
      "l1BlobBaseFee": "0x1",
      "l1BlobBaseFeeScalar": "0x101c12",
      "l1Fee": "0xcb22e67a",
      "l1GasPrice": "0x357952c9",
      "l1GasUsed": "0x68a"
    },
    {
      "status": "0x1",
      "cumulativeGasUsed": "0x2be6de5",
      "logs": [
        {
          "address": "0xd0ace37eb059437254a9bf45c16b346a7565aa08",
          "topics": [
            "0xabc24a8e0aba37751b4882519378921023b11a778c2ab51b7783ecc94464fb79",
            "0x000000000000000000000000ca701db8af0524a69b63506301492a4c0979a9f9"
          ],
          "data": "0x0000000000000000000000000000000000000000000000000000000000000001",
          "blockHash": "0x700faaf788bade259838ceec2e95fef9d0e2b16765722d48d76ac29e0f48d015",
          "blockNumber": "0x1d935d7",
          "blockTimestamp": "0x683cc891",
          "transactionHash": "0x9c8426902efce4a2f5f77faf453772004237a61e162139a01ea205e5f403d2d2",
          "transactionIndex": "0x8a",
          "logIndex": "0x542",
          "removed": false
        }
      ],
      "logsBloom": "0x00080000000000000000000000000000000000000000000000000000000000000000000100000000000000000000000000000000100020000000000000000000000000000000000000000000000000000000000000000000000000000000000000000000000000002000000000000000000000000000000000000000000000000000000000000000000000000000000000000000000000400000000000000000000000000000000000000000000000000000000000000000000000000000400000000000000000000000000000000000000000000000000000000000000000000000000001000000008000000000000000000000000000000000000000000000",
      "type": "0x2",
      "transactionHash": "0x9c8426902efce4a2f5f77faf453772004237a61e162139a01ea205e5f403d2d2",
      "transactionIndex": "0x8a",
      "blockHash": "0x700faaf788bade259838ceec2e95fef9d0e2b16765722d48d76ac29e0f48d015",
      "blockNumber": "0x1d935d7",
      "gasUsed": "0xc0f8",
      "effectiveGasPrice": "0xdba95",
      "from": "0x19ac47293ddea675e73feebeac52eb6f14ba756f",
      "to": "0xd0ace37eb059437254a9bf45c16b346a7565aa08",
      "contractAddress": null,
      "l1BaseFeeScalar": "0x8dd",
      "l1BlobBaseFee": "0x1",
      "l1BlobBaseFeeScalar": "0x101c12",
      "l1Fee": "0xc221b8a1",
      "l1GasPrice": "0x357952c9",
      "l1GasUsed": "0x640"
    },
    {
      "status": "0x1",
      "cumulativeGasUsed": "0xba63e9",
      "logs": [
        {
          "address": "0xd0ace37eb059437254a9bf45c16b346a7565aa08",
          "topics": [
            "0x8b18afeb361b83b025999ed5b42f1d90c68aaa5a0fd49c015f04c3b8b81e80eb",
            "0xf8bfe0ff00000000000000000000000000000000000000000000000000000000"
          ],
          "data": "0x000000000000000000000000000000000000000000000000000000000000004000000000000000000000000000000000000000000000000000000000683cc8950000000000000000000000000000000000000000000000000000000000000024f8bfe0ff000000000000000000000000ca701db8af0524a69b63506301492a4c0979a9f900000000000000000000000000000000000000000000000000000000",
          "blockHash": "0xa1fa07431fe57798c86012d8123096fd03efff09fd71f42f4e7fc4cda22a3888",
          "blockNumber": "0x1d935d9",
          "blockTimestamp": "0x683cc895",
          "transactionHash": "0x5c728a17171ab0581a58d30b44c57f32f09d1c47481a645e0d2e276aeea26102",
          "transactionIndex": "0x2a",
          "logIndex": "0x72",
          "removed": false
        }
      ],
      "logsBloom": "0x00000000000000000000000000000000000000000000000000000000000000000000000000000000000000000000000000000000000020000000000000000000000000000000000000000000000000000000000000000000000000000001000000100000000000002000000000000000000000000000000000000020000000000000000000000000000000000000000000000000000000000000000000000000000000000000000000000000000000000000000000000000000000000000000000000000000000000000001000000000000000000000000000000000000000000000000000000000008000000000000080000000000000000000200000000000",
      "type": "0x2",
      "transactionHash": "0x5c728a17171ab0581a58d30b44c57f32f09d1c47481a645e0d2e276aeea26102",
      "transactionIndex": "0x2a",
      "blockHash": "0xa1fa07431fe57798c86012d8123096fd03efff09fd71f42f4e7fc4cda22a3888",
      "blockNumber": "0x1d935d9",
      "gasUsed": "0xd092",
      "effectiveGasPrice": "0xd9931",
      "from": "0x19ac47293ddea675e73feebeac52eb6f14ba756f",
      "to": "0xd0ace37eb059437254a9bf45c16b346a7565aa08",
      "contractAddress": null,
      "l1BaseFeeScalar": "0x8dd",
      "l1BlobBaseFee": "0x1",
      "l1BlobBaseFeeScalar": "0x101c12",
      "l1Fee": "0xc221b8a1",
      "l1GasPrice": "0x357952c9",
      "l1GasUsed": "0x640"
    },
    {
      "status": "0x1",
      "cumulativeGasUsed": "0x387b3e3",
      "logs": [
        {
          "address": "0xd0ace37eb059437254a9bf45c16b346a7565aa08",
          "topics": [
            "0x952cc8747f83185688b392112e582343bfdc49fab1600cd5b7960b0b7122d5a8",
            "0x00000000000000000000000019ac47293ddea675e73feebeac52eb6f14ba756f",
            "0x000000000000000000000000ca701db8af0524a69b63506301492a4c0979a9f9"
          ],
          "data": "0x",
          "blockHash": "0xf56cb010da807a383eb25aab55c88203d05f529dff9285d17afa3712a2589184",
          "blockNumber": "0x1d935da",
          "blockTimestamp": "0x683cc897",
          "transactionHash": "0xd27a5927f35a8c2e4b0fcda6839dc02127d29cebc8872c72b4fcd8dda041032b",
          "transactionIndex": "0x10b",
          "logIndex": "0x2fd",
          "removed": false
        }
      ],
      "logsBloom": "0x00000000000000000000000000000000000000000020000000000000000000000000000100000100000000000000000000000000100020000000000000000000000000000000000000000000000000000000000000000000000000000000000000000000000000002000000000000000000000000000000000000000000000000000000080000000000008000000000000000000000000000000000000000000000000000000000000000000000000000000000000000000000000000000400000000000000000000000000000000000000000000000000000000000000000000000000000080000008000000000000000000000000400000000000000000000",
      "type": "0x2",
      "transactionHash": "0xd27a5927f35a8c2e4b0fcda6839dc02127d29cebc8872c72b4fcd8dda041032b",
      "transactionIndex": "0x10b",
      "blockHash": "0xf56cb010da807a383eb25aab55c88203d05f529dff9285d17afa3712a2589184",
      "blockNumber": "0x1d935da",
      "gasUsed": "0xc8b1",
      "effectiveGasPrice": "0xdc3a1",
      "from": "0x19ac47293ddea675e73feebeac52eb6f14ba756f",
      "to": "0xd0ace37eb059437254a9bf45c16b346a7565aa08",
      "contractAddress": null,
      "l1BaseFeeScalar": "0x8dd",
      "l1BlobBaseFee": "0x1",
      "l1BlobBaseFeeScalar": "0x101c12",
      "l1Fee": "0xd108eed3",
      "l1GasPrice": "0x39943ae7",
      "l1GasUsed": "0x640"
    }
  ],
  "libraries": [],
  "pending": [],
  "returns": {},
  "timestamp": 1748813976,
  "chain": 8453,
  "commit": "6dcf2f4"
}