{
  "transactions": [
    {
      "hash": "0xac28746cbc30a6a46acfc542fa5beb851d5337ef2a264b4857739533bcaf1f1e",
      "transactionType": "CALL",
      "contractName": null,
      "contractAddress": "0xd0ace37eb059437254a9bf45c16b346a7565aa08",
      "function": "submit(bytes)",
      "arguments": [
        "0xd5f806000000000000000000000000006abc9eda1669f06c222742ea33785050a3a24826"
      ],
      "transaction": {
        "from": "0x19ac47293ddea675e73feebeac52eb6f14ba756f",
        "to": "0xd0ace37eb059437254a9bf45c16b346a7565aa08",
        "gas": "0x12005",
        "value": "0x0",
        "input": "0xef7fa71b00000000000000000000000000000000000000000000000000000000000000200000000000000000000000000000000000000000000000000000000000000024d5f806000000000000000000000000006abc9eda1669f06c222742ea33785050a3a2482600000000000000000000000000000000000000000000000000000000",
        "nonce": "0x15",
        "chainId": "0x2105"
      },
      "additionalContracts": [],
      "isFixedGasLimit": false
    },
    {
      "hash": "0x5e2847047da4971bba3a874580392450cfe1bfdce97d7fce135fd7a5d4bfec09",
      "transactionType": "CALL",
      "contractName": null,
      "contractAddress": "0xd0ace37eb059437254a9bf45c16b346a7565aa08",
      "function": "setVic(address)",
      "arguments": [
        "0x6aBC9EDA1669F06C222742eA33785050a3a24826"
      ],
      "transaction": {
        "from": "0x19ac47293ddea675e73feebeac52eb6f14ba756f",
        "to": "0xd0ace37eb059437254a9bf45c16b346a7565aa08",
        "gas": "0x143c0",
        "value": "0x0",
        "input": "0xd5f806000000000000000000000000006abc9eda1669f06c222742ea33785050a3a24826",
        "nonce": "0x16",
        "chainId": "0x2105"
      },
      "additionalContracts": [],
      "isFixedGasLimit": false
    }
  ],
  "receipts": [
    {
      "status": "0x1",
      "cumulativeGasUsed": "0x330f979",
      "logs": [
        {
          "address": "0xd0ace37eb059437254a9bf45c16b346a7565aa08",
          "topics": [
            "0x8b18afeb361b83b025999ed5b42f1d90c68aaa5a0fd49c015f04c3b8b81e80eb",
            "0xd5f8060000000000000000000000000000000000000000000000000000000000"
          ],
          "data": "0x000000000000000000000000000000000000000000000000000000000000004000000000000000000000000000000000000000000000000000000000683ccb530000000000000000000000000000000000000000000000000000000000000024d5f806000000000000000000000000006abc9eda1669f06c222742ea33785050a3a2482600000000000000000000000000000000000000000000000000000000",
          "blockHash": "0xb90216e44ec542ad0ee66033af3c2feb7da265f3574d01d2c797c219b116dce5",
          "blockNumber": "0x1d93738",
          "blockTimestamp": "0x683ccb53",
          "transactionHash": "0xac28746cbc30a6a46acfc542fa5beb851d5337ef2a264b4857739533bcaf1f1e",
          "transactionIndex": "0xb2",
          "logIndex": "0x2ce",
          "removed": false
        }
      ],
      "logsBloom": "0x00000000000000000000000000000000000000000000000000000000000000000000000000000000000000000000000000000000008020000000000000000000000000000008000000000000000000000000000000000000000000000001000000100000000000002000000000000000000000000000000000000000000000000000000000000000000000000000000000000000000000000000000000000000000000000000000000000000200000000000000000000000000000000000000000000000000000000000001000000000000000000000000000000000000000000000000000000000008000000000000000000000000000000000000000000000",
      "type": "0x2",
      "transactionHash": "0xac28746cbc30a6a46acfc542fa5beb851d5337ef2a264b4857739533bcaf1f1e",
      "transactionIndex": "0xb2",
      "blockHash": "0xb90216e44ec542ad0ee66033af3c2feb7da265f3574d01d2c797c219b116dce5",
      "blockNumber": "0x1d93738",
      "gasUsed": "0xd086",
      "effectiveGasPrice": "0xd1f8c",
      "from": "0x19ac47293ddea675e73feebeac52eb6f14ba756f",
      "to": "0xd0ace37eb059437254a9bf45c16b346a7565aa08",
      "contractAddress": null,
      "l1BaseFeeScalar": "0x8dd",
      "l1BlobBaseFee": "0x1",
      "l1BlobBaseFeeScalar": "0x101c12",
      "l1Fee": "0xcf273f91",
      "l1GasPrice": "0x390f8c9a",
      "l1GasUsed": "0x640"
    },
    {
      "status": "0x1",
      "cumulativeGasUsed": "0x2bf070e",
      "logs": [
        {
          "address": "0xd0ace37eb059437254a9bf45c16b346a7565aa08",
          "topics": [
            "0x4dec04e750ca11537cabcd8a9eab06494de08da3735bc8871cd41250e190bc04"
          ],
          "data": "0x0000000000000000000000000000000000000000000000000000000000000000000000000000000000000000000000000000000000000000000000000000000000000000000000000000000000000000000000000000000000000000000000000000000000000000000000000000000000000000000000000000000000000000",
          "blockHash": "0x7d5c5c3c5abc843d2c147171780bcbba7573a26b45f30905e20032dcb32317cd",
          "blockNumber": "0x1d93739",
          "blockTimestamp": "0x683ccb55",
          "transactionHash": "0x5e2847047da4971bba3a874580392450cfe1bfdce97d7fce135fd7a5d4bfec09",
          "transactionIndex": "0x91",
          "logIndex": "0x127",
          "removed": false
        },
        {
          "address": "0xd0ace37eb059437254a9bf45c16b346a7565aa08",
          "topics": [
            "0xd4d20e226dcf5a47f2b86c0eeb910bdce90eb31fcc433e23fec4c5f08859c3b9",
            "0x0000000000000000000000006abc9eda1669f06c222742ea33785050a3a24826"
          ],
          "data": "0x",
          "blockHash": "0x7d5c5c3c5abc843d2c147171780bcbba7573a26b45f30905e20032dcb32317cd",
          "blockNumber": "0x1d93739",
          "blockTimestamp": "0x683ccb55",
          "transactionHash": "0x5e2847047da4971bba3a874580392450cfe1bfdce97d7fce135fd7a5d4bfec09",
          "transactionIndex": "0x91",
          "logIndex": "0x128",
          "removed": false
        }
      ],
      "logsBloom": "0x00000000000000000000000040000000000000000000400000000000000000000000000000000000000000000000000000000000000020000000000000000000000000000000000000000000000000000000000000000000000000000000000000000000000000002000000000000000000000000000000000000000000000000000020000000000000000000000000000000000000000000000000000000080000000000000000000000000000000000000000000000001001000000000000000000400000000000000000000000000000000100000000000000000000000000000000000000000008000000000000000200000000000000000000000000000",
      "type": "0x2",
      "transactionHash": "0x5e2847047da4971bba3a874580392450cfe1bfdce97d7fce135fd7a5d4bfec09",
      "transactionIndex": "0x91",
      "blockHash": "0x7d5c5c3c5abc843d2c147171780bcbba7573a26b45f30905e20032dcb32317cd",
      "blockNumber": "0x1d93739",
      "gasUsed": "0xea64",
      "effectiveGasPrice": "0xd174a",
      "from": "0x19ac47293ddea675e73feebeac52eb6f14ba756f",
      "to": "0xd0ace37eb059437254a9bf45c16b346a7565aa08",
      "contractAddress": null,
      "l1BaseFeeScalar": "0x8dd",
      "l1BlobBaseFee": "0x1",
      "l1BlobBaseFeeScalar": "0x101c12",
      "l1Fee": "0xcf273f91",
      "l1GasPrice": "0x390f8c9a",
      "l1GasUsed": "0x640"
    }
  ],
  "libraries": [],
  "pending": [],
  "returns": {},
  "timestamp": 1748814678,
  "chain": 8453,
  "commit": "14d6e6a"
}